{
  "_format": "hh3-artifact-1",
  "contractName": "HotelBooking",
  "sourceName": "contracts/HotelBooking.sol",
  "abi": [
    {
      "inputs": [
        {
          "internalType": "address",
          "name": "_tokenAddress",
          "type": "address"
        }
      ],
      "stateMutability": "nonpayable",
      "type": "constructor"
    },
    {
      "inputs": [
        {
          "internalType": "address",
          "name": "owner",
          "type": "address"
        }
      ],
      "name": "OwnableInvalidOwner",
      "type": "error"
    },
    {
      "inputs": [
        {
          "internalType": "address",
          "name": "account",
          "type": "address"
        }
      ],
      "name": "OwnableUnauthorizedAccount",
      "type": "error"
    },
    {
      "anonymous": false,
      "inputs": [
        {
          "indexed": true,
          "internalType": "address",
          "name": "previousOwner",
          "type": "address"
        },
        {
          "indexed": true,
          "internalType": "address",
          "name": "newOwner",
          "type": "address"
        }
      ],
      "name": "OwnershipTransferred",
      "type": "event"
    },
    {
      "anonymous": false,
      "inputs": [
        {
          "indexed": true,
          "internalType": "uint256",
          "name": "roomId",
          "type": "uint256"
        },
        {
          "indexed": true,
          "internalType": "address",
          "name": "user",
          "type": "address"
        },
        {
          "indexed": false,
          "internalType": "uint256",
          "name": "price",
          "type": "uint256"
        }
      ],
      "name": "RoomBooked",
      "type": "event"
    },
    {
      "inputs": [
        {
          "internalType": "uint256",
          "name": "_id",
          "type": "uint256"
        }
      ],
      "name": "bookRoom",
      "outputs": [],
      "stateMutability": "nonpayable",
      "type": "function"
    },
    {
      "inputs": [
        {
          "internalType": "uint256",
          "name": "_id",
          "type": "uint256"
        }
      ],
      "name": "getRoom",
      "outputs": [
        {
          "components": [
            {
              "internalType": "uint256",
              "name": "id",
              "type": "uint256"
            },
            {
              "internalType": "uint256",
              "name": "price",
              "type": "uint256"
            },
            {
              "internalType": "bool",
              "name": "isBooked",
              "type": "bool"
            },
            {
              "internalType": "address",
              "name": "bookedBy",
              "type": "address"
            }
          ],
          "internalType": "struct HotelBooking.Room",
          "name": "",
          "type": "tuple"
        }
      ],
      "stateMutability": "view",
      "type": "function"
    },
    {
      "inputs": [
        {
          "internalType": "uint256",
          "name": "_id",
          "type": "uint256"
        }
      ],
      "name": "isRoomAvailable",
      "outputs": [
        {
          "internalType": "bool",
          "name": "",
          "type": "bool"
        }
      ],
      "stateMutability": "view",
      "type": "function"
    },
    {
      "inputs": [],
      "name": "owner",
      "outputs": [
        {
          "internalType": "address",
          "name": "",
          "type": "address"
        }
      ],
      "stateMutability": "view",
      "type": "function"
    },
    {
      "inputs": [],
      "name": "paymentToken",
      "outputs": [
        {
          "internalType": "contract IERC20",
          "name": "",
          "type": "address"
        }
      ],
      "stateMutability": "view",
      "type": "function"
    },
    {
      "inputs": [],
      "name": "renounceOwnership",
      "outputs": [],
      "stateMutability": "nonpayable",
      "type": "function"
    },
    {
      "inputs": [
        {
          "internalType": "uint256",
          "name": "",
          "type": "uint256"
        }
      ],
      "name": "rooms",
      "outputs": [
        {
          "internalType": "uint256",
          "name": "id",
          "type": "uint256"
        },
        {
          "internalType": "uint256",
          "name": "price",
          "type": "uint256"
        },
        {
          "internalType": "bool",
          "name": "isBooked",
          "type": "bool"
        },
        {
          "internalType": "address",
          "name": "bookedBy",
          "type": "address"
        }
      ],
      "stateMutability": "view",
      "type": "function"
    },
    {
      "inputs": [
        {
          "internalType": "uint256",
          "name": "_id",
          "type": "uint256"
        },
        {
          "internalType": "uint256",
          "name": "_price",
          "type": "uint256"
        }
      ],
      "name": "setRoom",
      "outputs": [],
      "stateMutability": "nonpayable",
      "type": "function"
    },
    {
      "inputs": [
        {
          "internalType": "address",
          "name": "newOwner",
          "type": "address"
        }
      ],
      "name": "transferOwnership",
      "outputs": [],
      "stateMutability": "nonpayable",
      "type": "function"
    },
    {
      "inputs": [],
      "name": "withdrawTokens",
      "outputs": [],
      "stateMutability": "nonpayable",
      "type": "function"
    }
  ],
  "bytecode": "0x608060405234801561000f575f5ffd5b50604051610a6b380380610a6b83398101604081905261002e91610128565b338061005457604051631e4fbdf760e01b81525f60048201526024015b60405180910390fd5b61005d816100d9565b506001600160a01b0381166100b45760405162461bcd60e51b815260206004820152601c60248201527f546f6b656e20616464726573732063616e6e6f74206265207a65726f00000000604482015260640161004b565b600180546001600160a01b0319166001600160a01b0392909216919091179055610155565b5f80546001600160a01b038381166001600160a01b0319831681178455604051919092169283917f8be0079c531659141344cd1fd0a4f28419497f9722a3daafe3b4186f6b6457e09190a35050565b5f60208284031215610138575f5ffd5b81516001600160a01b038116811461014e575f5ffd5b9392505050565b610909806101625f395ff3fe608060405234801561000f575f5ffd5b506004361061009b575f3560e01c80636d8a74cb116100635780636d8a74cb14610189578063715018a61461024a5780638d8f2adb146102525780638da5cb5b1461025a578063f2fde38b1461026a575f5ffd5b80631bae0ac81461009f578063220a86ad146101135780633013ce2914610136578063391150ad146101615780635f49d3d814610176575b5f5ffd5b6100df6100ad366004610817565b600260208190525f918252604090912080546001820154919092015460ff81169061010090046001600160a01b031684565b604080519485526020850193909352901515918301919091526001600160a01b031660608201526080015b60405180910390f35b610126610121366004610817565b61027d565b604051901515815260200161010a565b600154610149906001600160a01b031681565b6040516001600160a01b03909116815260200161010a565b61017461016f36600461082e565b6102e0565b005b610174610184366004610817565b6103d2565b61020c610197366004610817565b604080516080810182525f808252602082018190529181018290526060810191909152505f908152600260208181526040928390208351608081018552815481526001820154928101929092529091015460ff81161515928201929092526101009091046001600160a01b0316606082015290565b60405161010a919081518152602080830151908201526040808301511515908201526060918201516001600160a01b03169181019190915260800190565b6101746105ba565b6101746105cd565b5f546001600160a01b0316610149565b61017461027836600461084e565b61075f565b5f8181526002602081815260408084208151608081018352815481526001820154938101939093529092015460ff81161580159383018490526101009091046001600160a01b0316606083015290916102d957505f8160200151115b9392505050565b6102e861079c565b5f811161033c5760405162461bcd60e51b815260206004820152601c60248201527f5072696365206d7573742062652067726561746572207468616e20300000000060448201526064015b60405180910390fd5b604051806080016040528083815260200182670de0b6b3a76400006103619190610874565b81525f602080830182905260409283018290529481526002808652908290208351815594830151600186015590820151930180546060909201516001600160a81b0319909216931515610100600160a81b031916939093176101006001600160a01b03909216919091021790915550565b5f8181526002602081905260409091209081015460ff161561042e5760405162461bcd60e51b8152602060048201526015602482015274141a1bdb99c819184818dbc81b99dd5bda4819185d605a1b6044820152606401610333565b5f8160010154116104775760405162461bcd60e51b815260206004820152601360248201527250686f6e67206b686f6e6720746f6e2074616960681b6044820152606401610333565b60018054908201546040516323b872dd60e01b815233600482015230602482015260448101919091525f916001600160a01b0316906323b872dd906064016020604051808303815f875af11580156104d1573d5f5f3e3d5ffd5b505050506040513d601f19601f820116820180604052508101906104f5919061089d565b9050806105595760405162461bcd60e51b815260206004820152602c60248201527f5468616e6820746f616e2074686174206261692028567569206c6f6e6720417060448201526b70726f7665207472756f632960a01b6064820152608401610333565b60028201805460016001600160a81b03199091166101003390810291909117821790925583015460405190815284907f2b4708ffb84be173b818d9b07f07c6679aa34f2f03fa0763b98034f6fc694fe59060200160405180910390a3505050565b6105c261079c565b6105cb5f6107c8565b565b6105d561079c565b6001546040516370a0823160e01b81523060048201525f916001600160a01b0316906370a0823190602401602060405180830381865afa15801561061b573d5f5f3e3d5ffd5b505050506040513d601f19601f8201168201806040525081019061063f91906108bc565b90505f81116106885760405162461bcd60e51b81526020600482015260156024820152744e6f20746f6b656e7320746f20776974686472617760581b6044820152606401610333565b6001545f906001600160a01b031663a9059cbb6106ac5f546001600160a01b031690565b6040516001600160e01b031960e084901b1681526001600160a01b039091166004820152602481018590526044016020604051808303815f875af11580156106f6573d5f5f3e3d5ffd5b505050506040513d601f19601f8201168201806040525081019061071a919061089d565b90508061075b5760405162461bcd60e51b815260206004820152600f60248201526e15da5d1a191c985dc819985a5b1959608a1b6044820152606401610333565b5050565b61076761079c565b6001600160a01b03811661079057604051631e4fbdf760e01b81525f6004820152602401610333565b610799816107c8565b50565b5f546001600160a01b031633146105cb5760405163118cdaa760e01b8152336004820152602401610333565b5f80546001600160a01b038381166001600160a01b0319831681178455604051919092169283917f8be0079c531659141344cd1fd0a4f28419497f9722a3daafe3b4186f6b6457e09190a35050565b5f60208284031215610827575f5ffd5b5035919050565b5f5f6040838503121561083f575f5ffd5b50508035926020909101359150565b5f6020828403121561085e575f5ffd5b81356001600160a01b03811681146102d9575f5ffd5b808202811582820484141761089757634e487b7160e01b5f52601160045260245ffd5b92915050565b5f602082840312156108ad575f5ffd5b815180151581146102d9575f5ffd5b5f602082840312156108cc575f5ffd5b505191905056fea26469706673582212203831c16f3f99940393218ab91fdb8d83dfc6f4c6e119d5240fdea00e184a910e64736f6c634300081c0033",
  "linkReferences": {},
  "deployedLinkReferences": {},
  "immutableReferences": {},
  "inputSourceName": "project/contracts/HotelBooking.sol",
  "buildInfoId": "solc-0_8_28-24c28037cd8229ddad71885f7994b15b83e49fa0"
}